{
  "contractName": "MyWallet",
  "abi": [
    {
      "constant": false,
      "inputs": [],
      "name": "kill",
      "outputs": [],
      "payable": false,
      "stateMutability": "nonpayable",
      "type": "function"
    },
    {
      "payable": true,
      "stateMutability": "payable",
      "type": "fallback"
    },
    {
      "anonymous": false,
      "inputs": [
        {
          "indexed": false,
          "name": "_from",
          "type": "address"
        },
        {
          "indexed": false,
          "name": "_amount",
          "type": "uint256"
        }
      ],
      "name": "receivedFunds",
      "type": "event"
    },
    {
      "anonymous": false,
      "inputs": [
        {
          "indexed": true,
          "name": "_from",
          "type": "address"
        },
        {
          "indexed": true,
          "name": "_to",
          "type": "address"
        },
        {
          "indexed": false,
          "name": "_reason",
          "type": "string"
        },
        {
          "indexed": false,
          "name": "_proposalId",
          "type": "uint256"
        }
      ],
      "name": "proposalReceived",
      "type": "event"
    },
    {
      "anonymous": false,
      "inputs": [
        {
          "indexed": true,
          "name": "_to",
          "type": "address"
        },
        {
          "indexed": false,
          "name": "_amount",
          "type": "uint256"
        }
      ],
      "name": "confirmProposalEvent",
      "type": "event"
    },
    {
      "anonymous": false,
      "inputs": [
        {
          "indexed": true,
          "name": "owned",
          "type": "address"
        }
      ],
      "name": "ownerEvent",
      "type": "event"
    },
    {
      "constant": false,
      "inputs": [
        {
          "name": "_to",
          "type": "address"
        },
        {
          "name": "_value",
          "type": "uint256"
        },
        {
          "name": "_reason",
          "type": "string"
        }
      ],
      "name": "spendMoneyOn",
      "outputs": [
        {
          "name": "",
          "type": "uint256"
        }
      ],
      "payable": false,
      "stateMutability": "nonpayable",
      "type": "function"
    },
    {
      "constant": false,
      "inputs": [
        {
          "name": "proposal_id",
          "type": "uint256"
        }
      ],
      "name": "confirmProposal",
      "outputs": [
        {
          "name": "",
          "type": "bool"
        }
      ],
      "payable": false,
      "stateMutability": "nonpayable",
      "type": "function"
    }
  ],
  "bytecode": "0x6060604052336000806101000a81548173ffffffffffffffffffffffffffffffffffffffff021916908373ffffffffffffffffffffffffffffffffffffffff160217905550610897806100536000396000f300606060405260043610610057576000357c0100000000000000000000000000000000000000000000000000000000900463ffffffff168063192997e7146100ce57806341c0e1b514610167578063f4a4f4d21461017c575b60003411156100cc577f3f638da77ee3d49db2211092b965c9c7c2fcb68fea5e8f85986200f8776f6a1d3334604051808373ffffffffffffffffffffffffffffffffffffffff1673ffffffffffffffffffffffffffffffffffffffff1681526020018281526020019250505060405180910390a15b005b34156100d957600080fd5b610151600480803573ffffffffffffffffffffffffffffffffffffffff1690602001909190803590602001909190803590602001908201803590602001908080601f016020809104026020016040519081016040528093929190818152602001838380828437820191505050505050919050506101b7565b6040518082815260200191505060405180910390f35b341561017257600080fd5b61017a6104d2565b005b341561018757600080fd5b61019d6004808035906020019091905050610563565b604051808215151515815260200191505060405180910390f35b60003373ffffffffffffffffffffffffffffffffffffffff166000809054906101000a900473ffffffffffffffffffffffffffffffffffffffff1673ffffffffffffffffffffffffffffffffffffffff161415610296578373ffffffffffffffffffffffffffffffffffffffff166108fc849081150290604051600060405180830381858888f19350505050151561024e57600080fd5b3373ffffffffffffffffffffffffffffffffffffffff167faf4095f09e2b551d1672cfabc71a8258f3b319bb9fdc9351d01c58d8da9068fc60405160405180910390a26104ca565b60016000815480929190600101919050555060a0604051908101604052803373ffffffffffffffffffffffffffffffffffffffff1681526020018573ffffffffffffffffffffffffffffffffffffffff1681526020018481526020018381526020016000151581525060026000600154815260200190815260200160002060008201518160000160006101000a81548173ffffffffffffffffffffffffffffffffffffffff021916908373ffffffffffffffffffffffffffffffffffffffff16021790555060208201518160010160006101000a81548173ffffffffffffffffffffffffffffffffffffffff021916908373ffffffffffffffffffffffffffffffffffffffff1602179055506040820151816002015560608201518160030190805190602001906103c89291906107c6565b5060808201518160040160006101000a81548160ff0219169083151502179055509050508373ffffffffffffffffffffffffffffffffffffffff163373ffffffffffffffffffffffffffffffffffffffff167f492e103af6f9230a4390ccafe2c1781adba1b6ff6b665ab8aed3151cd2d0d1eb846001546040518080602001838152602001828103825284818151815260200191508051906020019080838360005b8381101561048557808201518184015260208101905061046a565b50505050905090810190601f1680156104b25780820380516001836020036101000a031916815260200191505b50935050505060405180910390a360015490506104cb565b5b9392505050565b6000809054906101000a900473ffffffffffffffffffffffffffffffffffffffff1673ffffffffffffffffffffffffffffffffffffffff163373ffffffffffffffffffffffffffffffffffffffff161415610561576000809054906101000a900473ffffffffffffffffffffffffffffffffffffffff1673ffffffffffffffffffffffffffffffffffffffff16ff5b565b60008060009054906101000a900473ffffffffffffffffffffffffffffffffffffffff1673ffffffffffffffffffffffffffffffffffffffff163373ffffffffffffffffffffffffffffffffffffffff161415156105c057600080fd5b600073ffffffffffffffffffffffffffffffffffffffff166002600084815260200190815260200160002060000160009054906101000a900473ffffffffffffffffffffffffffffffffffffffff1673ffffffffffffffffffffffffffffffffffffffff161415156107bc57600115156002600084815260200190815260200160002060040160009054906101000a900460ff1615151415156107bb5760016002600084815260200190815260200160002060040160006101000a81548160ff0219169083151502179055506002600083815260200190815260200160002060010160009054906101000a900473ffffffffffffffffffffffffffffffffffffffff1673ffffffffffffffffffffffffffffffffffffffff166108fc60026000858152602001908152602001600020600201549081150290604051600060405180830381858888f19350505050151561071857600080fd5b6002600083815260200190815260200160002060010160009054906101000a900473ffffffffffffffffffffffffffffffffffffffff1673ffffffffffffffffffffffffffffffffffffffff167fa5138f2ab5cae11b9500c77cad46e01be546f7e41310ad0a639924aae00f883660026000858152602001908152602001600020600201546040518082815260200191505060405180910390a2600190506107c1565b5b600090505b919050565b828054600181600116156101000203166002900490600052602060002090601f016020900481019282601f1061080757805160ff1916838001178555610835565b82800160010185558215610835579182015b82811115610834578251825591602001919060010190610819565b5b5090506108429190610846565b5090565b61086891905b8082111561086457600081600090555060010161084c565b5090565b905600a165627a7a72305820a0b0e42dd33998d00fd3d1df57343aedaeb922ddd48269e8e18cba1fc346612c0029",
  "source": "pragma solidity ^0.4.17;\nimport \"./mortal.sol\";\n\ncontract MyWallet is mortal {\n    event receivedFunds(address _from, uint256 _amount);\n    event proposalReceived(address indexed _from, address indexed _to, string _reason, uint _proposalId);\n    event confirmProposalEvent( address indexed _to, uint256 _amount);\n    event ownerEvent( address indexed owned);\n\n    struct Proposal {\n    address _from;\n    address _to;\n    uint256 _value;\n    string _reason;\n    bool sent;\n    }\n\n    uint proposal_counter;\n\n    mapping(uint => Proposal) m_proposals;\n\n    function spendMoneyOn(address _to, uint256 _value, string _reason) public returns (uint256) {\n        if(owner == msg.sender) {\n            /**\n             * Update From Solidtiy 0.4.13, where .transfer was introduced!\n             * Checkout https://vomtom.at/exception-handling-in-solidity/\n             * .send() as shown in the video is depricated.\n             **/\n            _to.transfer(_value);\n            emit ownerEvent( msg.sender );\n        } else {\n            proposal_counter++;\n            m_proposals[proposal_counter] = Proposal(msg.sender, _to, _value, _reason, false);\n            emit proposalReceived(msg.sender, _to, _reason, proposal_counter);\n            return proposal_counter;\n        }\n    }\n\n    function confirmProposal(uint proposal_id) public onlyowner returns (bool) {\n        if(m_proposals[proposal_id]._from != address(0)) {\n            if(m_proposals[proposal_id].sent != true) {\n                m_proposals[proposal_id].sent = true;\n                m_proposals[proposal_id]._to.transfer(m_proposals[proposal_id]._value);\n                emit confirmProposalEvent(m_proposals[proposal_id]._to, m_proposals[proposal_id]._value);\n                return true;\n            }\n        }\n        return false;\n    }\n\n    function() payable public {\n        if(msg.value > 0) {\n            emit receivedFunds(msg.sender, msg.value);\n        }\n    }\n}\n",
  "sourcePath": "/Work/FordLearning/truffle_eth_class/s11/l08-Example/contracts/MyWallet.sol",
  "compiler": {
    "name": "solc",
    "version": "0.4.21+commit.dfe3193c.Emscripten.clang"
  },
  "schemaVersion": "2.0.0",
  "updatedAt": "2018-05-15T16:56:00.576Z"
}